{
  "_format": "hh-sol-artifact-1",
  "contractName": "myNFT",
  "sourceName": "contracts/myNFT.sol",
  "abi": [
    {
      "inputs": [
        {
          "internalType": "string",
          "name": "name",
          "type": "string"
        },
        {
          "internalType": "string",
          "name": "symbol",
          "type": "string"
        }
      ],
      "stateMutability": "nonpayable",
      "type": "constructor"
    },
    {
      "anonymous": false,
      "inputs": [
        {
          "indexed": true,
          "internalType": "address",
          "name": "owner",
          "type": "address"
        },
        {
          "indexed": true,
          "internalType": "address",
          "name": "approved",
          "type": "address"
        },
        {
          "indexed": true,
          "internalType": "uint256",
          "name": "tokenId",
          "type": "uint256"
        }
      ],
      "name": "Approval",
      "type": "event"
    },
    {
      "anonymous": false,
      "inputs": [
        {
          "indexed": true,
          "internalType": "address",
          "name": "owner",
          "type": "address"
        },
        {
          "indexed": true,
          "internalType": "address",
          "name": "operator",
          "type": "address"
        },
        {
          "indexed": false,
          "internalType": "bool",
          "name": "approved",
          "type": "bool"
        }
      ],
      "name": "ApprovalForAll",
      "type": "event"
    },
    {
      "anonymous": false,
      "inputs": [
        {
          "indexed": true,
          "internalType": "address",
          "name": "previousOwner",
          "type": "address"
        },
        {
          "indexed": true,
          "internalType": "address",
          "name": "newOwner",
          "type": "address"
        }
      ],
      "name": "OwnershipTransferred",
      "type": "event"
    },
    {
      "anonymous": false,
      "inputs": [
        {
          "indexed": true,
          "internalType": "address",
          "name": "from",
          "type": "address"
        },
        {
          "indexed": true,
          "internalType": "address",
          "name": "to",
          "type": "address"
        },
        {
          "indexed": true,
          "internalType": "uint256",
          "name": "tokenId",
          "type": "uint256"
        }
      ],
      "name": "Transfer",
      "type": "event"
    },
    {
      "inputs": [
        {
          "internalType": "address",
          "name": "to",
          "type": "address"
        },
        {
          "internalType": "uint256",
          "name": "tokenId",
          "type": "uint256"
        }
      ],
      "name": "approve",
      "outputs": [],
      "stateMutability": "nonpayable",
      "type": "function"
    },
    {
      "inputs": [
        {
          "internalType": "address",
          "name": "owner",
          "type": "address"
        }
      ],
      "name": "balanceOf",
      "outputs": [
        {
          "internalType": "uint256",
          "name": "",
          "type": "uint256"
        }
      ],
      "stateMutability": "view",
      "type": "function"
    },
    {
      "inputs": [
        {
          "internalType": "uint256",
          "name": "tokenId",
          "type": "uint256"
        }
      ],
      "name": "burn",
      "outputs": [],
      "stateMutability": "nonpayable",
      "type": "function"
    },
    {
      "inputs": [
        {
          "internalType": "uint256",
          "name": "tokenId",
          "type": "uint256"
        }
      ],
      "name": "getApproved",
      "outputs": [
        {
          "internalType": "address",
          "name": "",
          "type": "address"
        }
      ],
      "stateMutability": "view",
      "type": "function"
    },
    {
      "inputs": [
        {
          "internalType": "address",
          "name": "owner",
          "type": "address"
        },
        {
          "internalType": "address",
          "name": "operator",
          "type": "address"
        }
      ],
      "name": "isApprovedForAll",
      "outputs": [
        {
          "internalType": "bool",
          "name": "",
          "type": "bool"
        }
      ],
      "stateMutability": "view",
      "type": "function"
    },
    {
      "inputs": [
        {
          "internalType": "string",
          "name": "tokenURI",
          "type": "string"
        }
      ],
      "name": "mint",
      "outputs": [
        {
          "internalType": "uint256",
          "name": "",
          "type": "uint256"
        }
      ],
      "stateMutability": "nonpayable",
      "type": "function"
    },
    {
      "inputs": [],
      "name": "name",
      "outputs": [
        {
          "internalType": "string",
          "name": "",
          "type": "string"
        }
      ],
      "stateMutability": "view",
      "type": "function"
    },
    {
      "inputs": [],
      "name": "owner",
      "outputs": [
        {
          "internalType": "address",
          "name": "",
          "type": "address"
        }
      ],
      "stateMutability": "view",
      "type": "function"
    },
    {
      "inputs": [
        {
          "internalType": "uint256",
          "name": "tokenId",
          "type": "uint256"
        }
      ],
      "name": "ownerOf",
      "outputs": [
        {
          "internalType": "address",
          "name": "",
          "type": "address"
        }
      ],
      "stateMutability": "view",
      "type": "function"
    },
    {
      "inputs": [],
      "name": "renounceOwnership",
      "outputs": [],
      "stateMutability": "nonpayable",
      "type": "function"
    },
    {
      "inputs": [
        {
          "internalType": "address",
          "name": "from",
          "type": "address"
        },
        {
          "internalType": "address",
          "name": "to",
          "type": "address"
        },
        {
          "internalType": "uint256",
          "name": "tokenId",
          "type": "uint256"
        }
      ],
      "name": "safeTransferFrom",
      "outputs": [],
      "stateMutability": "nonpayable",
      "type": "function"
    },
    {
      "inputs": [
        {
          "internalType": "address",
          "name": "from",
          "type": "address"
        },
        {
          "internalType": "address",
          "name": "to",
          "type": "address"
        },
        {
          "internalType": "uint256",
          "name": "tokenId",
          "type": "uint256"
        },
        {
          "internalType": "bytes",
          "name": "data",
          "type": "bytes"
        }
      ],
      "name": "safeTransferFrom",
      "outputs": [],
      "stateMutability": "nonpayable",
      "type": "function"
    },
    {
      "inputs": [
        {
          "internalType": "address",
          "name": "operator",
          "type": "address"
        },
        {
          "internalType": "bool",
          "name": "approved",
          "type": "bool"
        }
      ],
      "name": "setApprovalForAll",
      "outputs": [],
      "stateMutability": "nonpayable",
      "type": "function"
    },
    {
      "inputs": [
        {
          "internalType": "bytes4",
          "name": "interfaceId",
          "type": "bytes4"
        }
      ],
      "name": "supportsInterface",
      "outputs": [
        {
          "internalType": "bool",
          "name": "",
          "type": "bool"
        }
      ],
      "stateMutability": "view",
      "type": "function"
    },
    {
      "inputs": [],
      "name": "symbol",
      "outputs": [
        {
          "internalType": "string",
          "name": "",
          "type": "string"
        }
      ],
      "stateMutability": "view",
      "type": "function"
    },
    {
      "inputs": [
        {
          "internalType": "uint256",
          "name": "tokenId",
          "type": "uint256"
        }
      ],
      "name": "tokenURI",
      "outputs": [
        {
          "internalType": "string",
          "name": "",
          "type": "string"
        }
      ],
      "stateMutability": "view",
      "type": "function"
    },
    {
      "inputs": [
        {
          "internalType": "address",
          "name": "from",
          "type": "address"
        },
        {
          "internalType": "address",
          "name": "to",
          "type": "address"
        },
        {
          "internalType": "uint256",
          "name": "tokenId",
          "type": "uint256"
        }
      ],
      "name": "transferFrom",
      "outputs": [],
      "stateMutability": "nonpayable",
      "type": "function"
    },
    {
      "inputs": [
        {
          "internalType": "address",
          "name": "newOwner",
          "type": "address"
        }
      ],
      "name": "transferOwnership",
      "outputs": [],
      "stateMutability": "nonpayable",
      "type": "function"
    }
  ],
  "bytecode": "0x60806040523480156200001157600080fd5b50604051620037dc380380620037dc833981810160405281019062000037919062000400565b8181816000908051906020019062000051929190620001b3565b5080600190805190602001906200006a929190620001b3565b5050506200008d62000081620000e560201b60201c565b620000ed60201b60201c565b6200009d620000e560201b60201c565b600760006101000a81548173ffffffffffffffffffffffffffffffffffffffff021916908373ffffffffffffffffffffffffffffffffffffffff1602179055505050620004e9565b600033905090565b6000600760009054906101000a900473ffffffffffffffffffffffffffffffffffffffff16905081600760006101000a81548173ffffffffffffffffffffffffffffffffffffffff021916908373ffffffffffffffffffffffffffffffffffffffff1602179055508173ffffffffffffffffffffffffffffffffffffffff168173ffffffffffffffffffffffffffffffffffffffff167f8be0079c531659141344cd1fd0a4f28419497f9722a3daafe3b4186f6b6457e060405160405180910390a35050565b828054620001c190620004b4565b90600052602060002090601f016020900481019282620001e5576000855562000231565b82601f106200020057805160ff191683800117855562000231565b8280016001018555821562000231579182015b828111156200023057825182559160200191906001019062000213565b5b50905062000240919062000244565b5090565b5b808211156200025f57600081600090555060010162000245565b5090565b6000604051905090565b600080fd5b600080fd5b600080fd5b600080fd5b6000601f19601f8301169050919050565b7f4e487b7100000000000000000000000000000000000000000000000000000000600052604160045260246000fd5b620002cc8262000281565b810181811067ffffffffffffffff82111715620002ee57620002ed62000292565b5b80604052505050565b60006200030362000263565b9050620003118282620002c1565b919050565b600067ffffffffffffffff82111562000334576200033362000292565b5b6200033f8262000281565b9050602081019050919050565b60005b838110156200036c5780820151818401526020810190506200034f565b838111156200037c576000848401525b50505050565b600062000399620003938462000316565b620002f7565b905082815260208101848484011115620003b857620003b76200027c565b5b620003c58482856200034c565b509392505050565b600082601f830112620003e557620003e462000277565b5b8151620003f784826020860162000382565b91505092915050565b600080604083850312156200041a57620004196200026d565b5b600083015167ffffffffffffffff8111156200043b576200043a62000272565b5b6200044985828601620003cd565b925050602083015167ffffffffffffffff8111156200046d576200046c62000272565b5b6200047b85828601620003cd565b9150509250929050565b7f4e487b7100000000000000000000000000000000000000000000000000000000600052602260045260246000fd5b60006002820490506001821680620004cd57607f821691505b602082108103620004e357620004e262000485565b5b50919050565b6132e380620004f96000396000f3fe608060405234801561001057600080fd5b50600436106101165760003560e01c8063715018a6116100a2578063b88d4fde11610071578063b88d4fde146102cb578063c87b56dd146102e7578063d85d3d2714610317578063e985e9c514610347578063f2fde38b1461037757610116565b8063715018a6146102695780638da5cb5b1461027357806395d89b4114610291578063a22cb465146102af57610116565b806323b872dd116100e957806323b872dd146101b557806342842e0e146101d157806342966c68146101ed5780636352211e1461020957806370a082311461023957610116565b806301ffc9a71461011b57806306fdde031461014b578063081812fc14610169578063095ea7b314610199575b600080fd5b61013560048036038101906101309190611eca565b610393565b6040516101429190611f12565b60405180910390f35b610153610475565b6040516101609190611fc6565b60405180910390f35b610183600480360381019061017e919061201e565b610507565b604051610190919061208c565b60405180910390f35b6101b360048036038101906101ae91906120d3565b61058c565b005b6101cf60048036038101906101ca9190612113565b6106a3565b005b6101eb60048036038101906101e69190612113565b610703565b005b6102076004803603810190610202919061201e565b610723565b005b610223600480360381019061021e919061201e565b61077f565b604051610230919061208c565b60405180910390f35b610253600480360381019061024e9190612166565b610830565b60405161026091906121a2565b60405180910390f35b6102716108e7565b005b61027b61096f565b604051610288919061208c565b60405180910390f35b610299610999565b6040516102a69190611fc6565b60405180910390f35b6102c960048036038101906102c491906121e9565b610a2b565b005b6102e560048036038101906102e0919061235e565b610a41565b005b61030160048036038101906102fc919061201e565b610aa3565b60405161030e9190611fc6565b60405180910390f35b610331600480360381019061032c9190612482565b610bf4565b60405161033e91906121a2565b60405180910390f35b610361600480360381019061035c91906124cb565b610cd4565b60405161036e9190611f12565b60405180910390f35b610391600480360381019061038c9190612166565b610d68565b005b60007f80ac58cd000000000000000000000000000000000000000000000000000000007bffffffffffffffffffffffffffffffffffffffffffffffffffffffff1916827bffffffffffffffffffffffffffffffffffffffffffffffffffffffff1916148061045e57507f5b5e139f000000000000000000000000000000000000000000000000000000007bffffffffffffffffffffffffffffffffffffffffffffffffffffffff1916827bffffffffffffffffffffffffffffffffffffffffffffffffffffffff1916145b8061046e575061046d82610e5f565b5b9050919050565b6060600080546104849061253a565b80601f01602080910402602001604051908101604052809291908181526020018280546104b09061253a565b80156104fd5780601f106104d2576101008083540402835291602001916104fd565b820191906000526020600020905b8154815290600101906020018083116104e057829003601f168201915b5050505050905090565b600061051282610ec9565b610551576040517f08c379a0000000000000000000000000000000000000000000000000000000008152600401610548906125dd565b60405180910390fd5b6004600083815260200190815260200160002060009054906101000a900473ffffffffffffffffffffffffffffffffffffffff169050919050565b60006105978261077f565b90508073ffffffffffffffffffffffffffffffffffffffff168373ffffffffffffffffffffffffffffffffffffffff1603610607576040517f08c379a00000000000000000000000000000000000000000000000000000000081526004016105fe9061266f565b60405180910390fd5b8073ffffffffffffffffffffffffffffffffffffffff16610626610f35565b73ffffffffffffffffffffffffffffffffffffffff16148061065557506106548161064f610f35565b610cd4565b5b610694576040517f08c379a000000000000000000000000000000000000000000000000000000000815260040161068b90612701565b60405180910390fd5b61069e8383610f3d565b505050565b6106b46106ae610f35565b82610ff6565b6106f3576040517f08c379a00000000000000000000000000000000000000000000000000000000081526004016106ea90612793565b60405180910390fd5b6106fe8383836110d4565b505050565b61071e83838360405180602001604052806000815250610a41565b505050565b61073461072e610f35565b82610ff6565b610773576040517f08c379a000000000000000000000000000000000000000000000000000000000815260040161076a90612825565b60405180910390fd5b61077c8161133a565b50565b6000806002600084815260200190815260200160002060009054906101000a900473ffffffffffffffffffffffffffffffffffffffff169050600073ffffffffffffffffffffffffffffffffffffffff168173ffffffffffffffffffffffffffffffffffffffff1603610827576040517f08c379a000000000000000000000000000000000000000000000000000000000815260040161081e906128b7565b60405180910390fd5b80915050919050565b60008073ffffffffffffffffffffffffffffffffffffffff168273ffffffffffffffffffffffffffffffffffffffff16036108a0576040517f08c379a000000000000000000000000000000000000000000000000000000000815260040161089790612949565b60405180910390fd5b600360008373ffffffffffffffffffffffffffffffffffffffff1673ffffffffffffffffffffffffffffffffffffffff168152602001908152602001600020549050919050565b6108ef610f35565b73ffffffffffffffffffffffffffffffffffffffff1661090d61096f565b73ffffffffffffffffffffffffffffffffffffffff1614610963576040517f08c379a000000000000000000000000000000000000000000000000000000000815260040161095a906129b5565b60405180910390fd5b61096d600061138d565b565b6000600760009054906101000a900473ffffffffffffffffffffffffffffffffffffffff16905090565b6060600180546109a89061253a565b80601f01602080910402602001604051908101604052809291908181526020018280546109d49061253a565b8015610a215780601f106109f657610100808354040283529160200191610a21565b820191906000526020600020905b815481529060010190602001808311610a0457829003601f168201915b5050505050905090565b610a3d610a36610f35565b8383611453565b5050565b610a52610a4c610f35565b83610ff6565b610a91576040517f08c379a0000000000000000000000000000000000000000000000000000000008152600401610a8890612793565b60405180910390fd5b610a9d848484846115bf565b50505050565b6060610aae82610ec9565b610aed576040517f08c379a0000000000000000000000000000000000000000000000000000000008152600401610ae490612a47565b60405180910390fd5b6000600660008481526020019081526020016000208054610b0d9061253a565b80601f0160208091040260200160405190810160405280929190818152602001828054610b399061253a565b8015610b865780601f10610b5b57610100808354040283529160200191610b86565b820191906000526020600020905b815481529060010190602001808311610b6957829003601f168201915b505050505090506000610b9761161b565b90506000815103610bac578192505050610bef565b600082511115610be1578082604051602001610bc9929190612aa3565b60405160208183030381529060405292505050610bef565b610bea84611632565b925050505b919050565b6000610bfe610f35565b73ffffffffffffffffffffffffffffffffffffffff16610c1c61096f565b73ffffffffffffffffffffffffffffffffffffffff1614610c72576040517f08c379a0000000000000000000000000000000000000000000000000000000008152600401610c69906129b5565b60405180910390fd5b610c7c60086116d9565b6000610c8860086116ef565b9050610c9433826116fd565b610c9e81846118d6565b610ccb600960009054906101000a900473ffffffffffffffffffffffffffffffffffffffff166001610a2b565b80915050919050565b6000600560008473ffffffffffffffffffffffffffffffffffffffff1673ffffffffffffffffffffffffffffffffffffffff16815260200190815260200160002060008373ffffffffffffffffffffffffffffffffffffffff1673ffffffffffffffffffffffffffffffffffffffff16815260200190815260200160002060009054906101000a900460ff16905092915050565b610d70610f35565b73ffffffffffffffffffffffffffffffffffffffff16610d8e61096f565b73ffffffffffffffffffffffffffffffffffffffff1614610de4576040517f08c379a0000000000000000000000000000000000000000000000000000000008152600401610ddb906129b5565b60405180910390fd5b600073ffffffffffffffffffffffffffffffffffffffff168173ffffffffffffffffffffffffffffffffffffffff1603610e53576040517f08c379a0000000000000000000000000000000000000000000000000000000008152600401610e4a90612b39565b60405180910390fd5b610e5c8161138d565b50565b60007f01ffc9a7000000000000000000000000000000000000000000000000000000007bffffffffffffffffffffffffffffffffffffffffffffffffffffffff1916827bffffffffffffffffffffffffffffffffffffffffffffffffffffffff1916149050919050565b60008073ffffffffffffffffffffffffffffffffffffffff166002600084815260200190815260200160002060009054906101000a900473ffffffffffffffffffffffffffffffffffffffff1673ffffffffffffffffffffffffffffffffffffffff1614159050919050565b600033905090565b816004600083815260200190815260200160002060006101000a81548173ffffffffffffffffffffffffffffffffffffffff021916908373ffffffffffffffffffffffffffffffffffffffff160217905550808273ffffffffffffffffffffffffffffffffffffffff16610fb08361077f565b73ffffffffffffffffffffffffffffffffffffffff167f8c5be1e5ebec7d5bd14f71427d1e84f3dd0314c0f7b2291e5b200ac8c7c3b92560405160405180910390a45050565b600061100182610ec9565b611040576040517f08c379a000000000000000000000000000000000000000000000000000000000815260040161103790612bcb565b60405180910390fd5b600061104b8361077f565b90508073ffffffffffffffffffffffffffffffffffffffff168473ffffffffffffffffffffffffffffffffffffffff16148061108d575061108c8185610cd4565b5b806110cb57508373ffffffffffffffffffffffffffffffffffffffff166110b384610507565b73ffffffffffffffffffffffffffffffffffffffff16145b91505092915050565b8273ffffffffffffffffffffffffffffffffffffffff166110f48261077f565b73ffffffffffffffffffffffffffffffffffffffff161461114a576040517f08c379a000000000000000000000000000000000000000000000000000000000815260040161114190612c5d565b60405180910390fd5b600073ffffffffffffffffffffffffffffffffffffffff168273ffffffffffffffffffffffffffffffffffffffff16036111b9576040517f08c379a00000000000000000000000000000000000000000000000000000000081526004016111b090612cef565b60405180910390fd5b6111c483838361194a565b6111cf600082610f3d565b6001600360008573ffffffffffffffffffffffffffffffffffffffff1673ffffffffffffffffffffffffffffffffffffffff168152602001908152602001600020600082825461121f9190612d3e565b925050819055506001600360008473ffffffffffffffffffffffffffffffffffffffff1673ffffffffffffffffffffffffffffffffffffffff16815260200190815260200160002060008282546112769190612d72565b92505081905550816002600083815260200190815260200160002060006101000a81548173ffffffffffffffffffffffffffffffffffffffff021916908373ffffffffffffffffffffffffffffffffffffffff160217905550808273ffffffffffffffffffffffffffffffffffffffff168473ffffffffffffffffffffffffffffffffffffffff167fddf252ad1be2c89b69c2b068fc378daa952ba7f163c4a11628f55a4df523b3ef60405160405180910390a461133583838361194f565b505050565b61134381611954565b60006006600083815260200190815260200160002080546113639061253a565b90501461138a576006600082815260200190815260200160002060006113899190611d7b565b5b50565b6000600760009054906101000a900473ffffffffffffffffffffffffffffffffffffffff16905081600760006101000a81548173ffffffffffffffffffffffffffffffffffffffff021916908373ffffffffffffffffffffffffffffffffffffffff1602179055508173ffffffffffffffffffffffffffffffffffffffff168173ffffffffffffffffffffffffffffffffffffffff167f8be0079c531659141344cd1fd0a4f28419497f9722a3daafe3b4186f6b6457e060405160405180910390a35050565b8173ffffffffffffffffffffffffffffffffffffffff168373ffffffffffffffffffffffffffffffffffffffff16036114c1576040517f08c379a00000000000000000000000000000000000000000000000000000000081526004016114b890612e14565b60405180910390fd5b80600560008573ffffffffffffffffffffffffffffffffffffffff1673ffffffffffffffffffffffffffffffffffffffff16815260200190815260200160002060008473ffffffffffffffffffffffffffffffffffffffff1673ffffffffffffffffffffffffffffffffffffffff16815260200190815260200160002060006101000a81548160ff0219169083151502179055508173ffffffffffffffffffffffffffffffffffffffff168373ffffffffffffffffffffffffffffffffffffffff167f17307eab39ab6107e8899845ad3d59bd9653f200f220920489ca2b5937696c31836040516115b29190611f12565b60405180910390a3505050565b6115ca8484846110d4565b6115d684848484611a71565b611615576040517f08c379a000000000000000000000000000000000000000000000000000000000815260040161160c90612ea6565b60405180910390fd5b50505050565b606060405180602001604052806000815250905090565b606061163d82610ec9565b61167c576040517f08c379a000000000000000000000000000000000000000000000000000000000815260040161167390612f38565b60405180910390fd5b600061168661161b565b905060008151116116a657604051806020016040528060008152506116d1565b806116b084611bf8565b6040516020016116c1929190612aa3565b6040516020818303038152906040525b915050919050565b6001816000016000828254019250508190555050565b600081600001549050919050565b600073ffffffffffffffffffffffffffffffffffffffff168273ffffffffffffffffffffffffffffffffffffffff160361176c576040517f08c379a000000000000000000000000000000000000000000000000000000000815260040161176390612fa4565b60405180910390fd5b61177581610ec9565b156117b5576040517f08c379a00000000000000000000000000000000000000000000000000000000081526004016117ac90613010565b60405180910390fd5b6117c16000838361194a565b6001600360008473ffffffffffffffffffffffffffffffffffffffff1673ffffffffffffffffffffffffffffffffffffffff16815260200190815260200160002060008282546118119190612d72565b92505081905550816002600083815260200190815260200160002060006101000a81548173ffffffffffffffffffffffffffffffffffffffff021916908373ffffffffffffffffffffffffffffffffffffffff160217905550808273ffffffffffffffffffffffffffffffffffffffff16600073ffffffffffffffffffffffffffffffffffffffff167fddf252ad1be2c89b69c2b068fc378daa952ba7f163c4a11628f55a4df523b3ef60405160405180910390a46118d26000838361194f565b5050565b6118df82610ec9565b61191e576040517f08c379a0000000000000000000000000000000000000000000000000000000008152600401611915906130a2565b60405180910390fd5b80600660008481526020019081526020016000209080519060200190611945929190611dbb565b505050565b505050565b505050565b600061195f8261077f565b905061196d8160008461194a565b611978600083610f3d565b6001600360008373ffffffffffffffffffffffffffffffffffffffff1673ffffffffffffffffffffffffffffffffffffffff16815260200190815260200160002060008282546119c89190612d3e565b925050819055506002600083815260200190815260200160002060006101000a81549073ffffffffffffffffffffffffffffffffffffffff021916905581600073ffffffffffffffffffffffffffffffffffffffff168273ffffffffffffffffffffffffffffffffffffffff167fddf252ad1be2c89b69c2b068fc378daa952ba7f163c4a11628f55a4df523b3ef60405160405180910390a4611a6d8160008461194f565b5050565b6000611a928473ffffffffffffffffffffffffffffffffffffffff16611d58565b15611beb578373ffffffffffffffffffffffffffffffffffffffff1663150b7a02611abb610f35565b8786866040518563ffffffff1660e01b8152600401611add9493929190613117565b6020604051808303816000875af1925050508015611b1957506040513d601f19601f82011682018060405250810190611b169190613178565b60015b611b9b573d8060008114611b49576040519150601f19603f3d011682016040523d82523d6000602084013e611b4e565b606091505b506000815103611b93576040517f08c379a0000000000000000000000000000000000000000000000000000000008152600401611b8a90612ea6565b60405180910390fd5b805181602001fd5b63150b7a0260e01b7bffffffffffffffffffffffffffffffffffffffffffffffffffffffff1916817bffffffffffffffffffffffffffffffffffffffffffffffffffffffff191614915050611bf0565b600190505b949350505050565b606060008203611c3f576040518060400160405280600181526020017f30000000000000000000000000000000000000000000000000000000000000008152509050611d53565b600082905060005b60008214611c71578080611c5a906131a5565b915050600a82611c6a919061321c565b9150611c47565b60008167ffffffffffffffff811115611c8d57611c8c612233565b5b6040519080825280601f01601f191660200182016040528015611cbf5781602001600182028036833780820191505090505b5090505b60008514611d4c57600182611cd89190612d3e565b9150600a85611ce7919061324d565b6030611cf39190612d72565b60f81b818381518110611d0957611d0861327e565b5b60200101907effffffffffffffffffffffffffffffffffffffffffffffffffffffffffffff1916908160001a905350600a85611d45919061321c565b9450611cc3565b8093505050505b919050565b6000808273ffffffffffffffffffffffffffffffffffffffff163b119050919050565b508054611d879061253a565b6000825580601f10611d995750611db8565b601f016020900490600052602060002090810190611db79190611e41565b5b50565b828054611dc79061253a565b90600052602060002090601f016020900481019282611de95760008555611e30565b82601f10611e0257805160ff1916838001178555611e30565b82800160010185558215611e30579182015b82811115611e2f578251825591602001919060010190611e14565b5b509050611e3d9190611e41565b5090565b5b80821115611e5a576000816000905550600101611e42565b5090565b6000604051905090565b600080fd5b600080fd5b60007fffffffff0000000000000000000000000000000000000000000000000000000082169050919050565b611ea781611e72565b8114611eb257600080fd5b50565b600081359050611ec481611e9e565b92915050565b600060208284031215611ee057611edf611e68565b5b6000611eee84828501611eb5565b91505092915050565b60008115159050919050565b611f0c81611ef7565b82525050565b6000602082019050611f276000830184611f03565b92915050565b600081519050919050565b600082825260208201905092915050565b60005b83811015611f67578082015181840152602081019050611f4c565b83811115611f76576000848401525b50505050565b6000601f19601f8301169050919050565b6000611f9882611f2d565b611fa28185611f38565b9350611fb2818560208601611f49565b611fbb81611f7c565b840191505092915050565b60006020820190508181036000830152611fe08184611f8d565b905092915050565b6000819050919050565b611ffb81611fe8565b811461200657600080fd5b50565b60008135905061201881611ff2565b92915050565b60006020828403121561203457612033611e68565b5b600061204284828501612009565b91505092915050565b600073ffffffffffffffffffffffffffffffffffffffff82169050919050565b60006120768261204b565b9050919050565b6120868161206b565b82525050565b60006020820190506120a1600083018461207d565b92915050565b6120b08161206b565b81146120bb57600080fd5b50565b6000813590506120cd816120a7565b92915050565b600080604083850312156120ea576120e9611e68565b5b60006120f8858286016120be565b925050602061210985828601612009565b9150509250929050565b60008060006060848603121561212c5761212b611e68565b5b600061213a868287016120be565b935050602061214b868287016120be565b925050604061215c86828701612009565b9150509250925092565b60006020828403121561217c5761217b611e68565b5b600061218a848285016120be565b91505092915050565b61219c81611fe8565b82525050565b60006020820190506121b76000830184612193565b92915050565b6121c681611ef7565b81146121d157600080fd5b50565b6000813590506121e3816121bd565b92915050565b60008060408385031215612200576121ff611e68565b5b600061220e858286016120be565b925050602061221f858286016121d4565b9150509250929050565b600080fd5b600080fd5b7f4e487b7100000000000000000000000000000000000000000000000000000000600052604160045260246000fd5b61226b82611f7c565b810181811067ffffffffffffffff8211171561228a57612289612233565b5b80604052505050565b600061229d611e5e565b90506122a98282612262565b919050565b600067ffffffffffffffff8211156122c9576122c8612233565b5b6122d282611f7c565b9050602081019050919050565b82818337600083830152505050565b60006123016122fc846122ae565b612293565b90508281526020810184848401111561231d5761231c61222e565b5b6123288482856122df565b509392505050565b600082601f83011261234557612344612229565b5b81356123558482602086016122ee565b91505092915050565b6000806000806080858703121561237857612377611e68565b5b6000612386878288016120be565b9450506020612397878288016120be565b93505060406123a887828801612009565b925050606085013567ffffffffffffffff8111156123c9576123c8611e6d565b5b6123d587828801612330565b91505092959194509250565b600067ffffffffffffffff8211156123fc576123fb612233565b5b61240582611f7c565b9050602081019050919050565b6000612425612420846123e1565b612293565b9050828152602081018484840111156124415761244061222e565b5b61244c8482856122df565b509392505050565b600082601f83011261246957612468612229565b5b8135612479848260208601612412565b91505092915050565b60006020828403121561249857612497611e68565b5b600082013567ffffffffffffffff8111156124b6576124b5611e6d565b5b6124c284828501612454565b91505092915050565b600080604083850312156124e2576124e1611e68565b5b60006124f0858286016120be565b9250506020612501858286016120be565b9150509250929050565b7f4e487b7100000000000000000000000000000000000000000000000000000000600052602260045260246000fd5b6000600282049050600182168061255257607f821691505b6020821081036125655761256461250b565b5b50919050565b7f4552433732313a20617070726f76656420717565727920666f72206e6f6e657860008201527f697374656e7420746f6b656e0000000000000000000000000000000000000000602082015250565b60006125c7602c83611f38565b91506125d28261256b565b604082019050919050565b600060208201905081810360008301526125f6816125ba565b9050919050565b7f4552433732313a20617070726f76616c20746f2063757272656e74206f776e6560008201527f7200000000000000000000000000000000000000000000000000000000000000602082015250565b6000612659602183611f38565b9150612664826125fd565b604082019050919050565b600060208201905081810360008301526126888161264c565b9050919050565b7f4552433732313a20617070726f76652063616c6c6572206973206e6f74206f7760008201527f6e6572206e6f7220617070726f76656420666f7220616c6c0000000000000000602082015250565b60006126eb603883611f38565b91506126f68261268f565b604082019050919050565b6000602082019050818103600083015261271a816126de565b9050919050565b7f4552433732313a207472616e736665722063616c6c6572206973206e6f74206f60008201527f776e6572206e6f7220617070726f766564000000000000000000000000000000602082015250565b600061277d603183611f38565b915061278882612721565b604082019050919050565b600060208201905081810360008301526127ac81612770565b9050919050565b7f4552433732314275726e61626c653a2063616c6c6572206973206e6f74206f7760008201527f6e6572206e6f7220617070726f76656400000000000000000000000000000000602082015250565b600061280f603083611f38565b915061281a826127b3565b604082019050919050565b6000602082019050818103600083015261283e81612802565b9050919050565b7f4552433732313a206f776e657220717565727920666f72206e6f6e657869737460008201527f656e7420746f6b656e0000000000000000000000000000000000000000000000602082015250565b60006128a1602983611f38565b91506128ac82612845565b604082019050919050565b600060208201905081810360008301526128d081612894565b9050919050565b7f4552433732313a2061646472657373207a65726f206973206e6f74206120766160008201527f6c6964206f776e65720000000000000000000000000000000000000000000000602082015250565b6000612933602983611f38565b915061293e826128d7565b604082019050919050565b6000602082019050818103600083015261296281612926565b9050919050565b7f4f776e61626c653a2063616c6c6572206973206e6f7420746865206f776e6572600082015250565b600061299f602083611f38565b91506129aa82612969565b602082019050919050565b600060208201905081810360008301526129ce81612992565b9050919050565b7f45524337323155524953746f726167653a2055524920717565727920666f722060008201527f6e6f6e6578697374656e7420746f6b656e000000000000000000000000000000602082015250565b6000612a31603183611f38565b9150612a3c826129d5565b604082019050919050565b60006020820190508181036000830152612a6081612a24565b9050919050565b600081905092915050565b6000612a7d82611f2d565b612a878185612a67565b9350612a97818560208601611f49565b80840191505092915050565b6000612aaf8285612a72565b9150612abb8284612a72565b91508190509392505050565b7f4f776e61626c653a206e6577206f776e657220697320746865207a65726f206160008201527f6464726573730000000000000000000000000000000000000000000000000000602082015250565b6000612b23602683611f38565b9150612b2e82612ac7565b604082019050919050565b60006020820190508181036000830152612b5281612b16565b9050919050565b7f4552433732313a206f70657261746f7220717565727920666f72206e6f6e657860008201527f697374656e7420746f6b656e0000000000000000000000000000000000000000602082015250565b6000612bb5602c83611f38565b9150612bc082612b59565b604082019050919050565b60006020820190508181036000830152612be481612ba8565b9050919050565b7f4552433732313a207472616e736665722066726f6d20696e636f72726563742060008201527f6f776e6572000000000000000000000000000000000000000000000000000000602082015250565b6000612c47602583611f38565b9150612c5282612beb565b604082019050919050565b60006020820190508181036000830152612c7681612c3a565b9050919050565b7f4552433732313a207472616e7366657220746f20746865207a65726f2061646460008201527f7265737300000000000000000000000000000000000000000000000000000000602082015250565b6000612cd9602483611f38565b9150612ce482612c7d565b604082019050919050565b60006020820190508181036000830152612d0881612ccc565b9050919050565b7f4e487b7100000000000000000000000000000000000000000000000000000000600052601160045260246000fd5b6000612d4982611fe8565b9150612d5483611fe8565b925082821015612d6757612d66612d0f565b5b828203905092915050565b6000612d7d82611fe8565b9150612d8883611fe8565b9250827fffffffffffffffffffffffffffffffffffffffffffffffffffffffffffffffff03821115612dbd57612dbc612d0f565b5b828201905092915050565b7f4552433732313a20617070726f766520746f2063616c6c657200000000000000600082015250565b6000612dfe601983611f38565b9150612e0982612dc8565b602082019050919050565b60006020820190508181036000830152612e2d81612df1565b9050919050565b7f4552433732313a207472616e7366657220746f206e6f6e20455243373231526560008201527f63656976657220696d706c656d656e7465720000000000000000000000000000602082015250565b6000612e90603283611f38565b9150612e9b82612e34565b604082019050919050565b60006020820190508181036000830152612ebf81612e83565b9050919050565b7f4552433732314d657461646174613a2055524920717565727920666f72206e6f60008201527f6e6578697374656e7420746f6b656e0000000000000000000000000000000000602082015250565b6000612f22602f83611f38565b9150612f2d82612ec6565b604082019050919050565b60006020820190508181036000830152612f5181612f15565b9050919050565b7f4552433732313a206d696e7420746f20746865207a65726f2061646472657373600082015250565b6000612f8e602083611f38565b9150612f9982612f58565b602082019050919050565b60006020820190508181036000830152612fbd81612f81565b9050919050565b7f4552433732313a20746f6b656e20616c7265616479206d696e74656400000000600082015250565b6000612ffa601c83611f38565b915061300582612fc4565b602082019050919050565b6000602082019050818103600083015261302981612fed565b9050919050565b7f45524337323155524953746f726167653a2055524920736574206f66206e6f6e60008201527f6578697374656e7420746f6b656e000000000000000000000000000000000000602082015250565b600061308c602e83611f38565b915061309782613030565b604082019050919050565b600060208201905081810360008301526130bb8161307f565b9050919050565b600081519050919050565b600082825260208201905092915050565b60006130e9826130c2565b6130f381856130cd565b9350613103818560208601611f49565b61310c81611f7c565b840191505092915050565b600060808201905061312c600083018761207d565b613139602083018661207d565b6131466040830185612193565b818103606083015261315881846130de565b905095945050505050565b60008151905061317281611e9e565b92915050565b60006020828403121561318e5761318d611e68565b5b600061319c84828501613163565b91505092915050565b60006131b082611fe8565b91507fffffffffffffffffffffffffffffffffffffffffffffffffffffffffffffffff82036131e2576131e1612d0f565b5b600182019050919050565b7f4e487b7100000000000000000000000000000000000000000000000000000000600052601260045260246000fd5b600061322782611fe8565b915061323283611fe8565b925082613242576132416131ed565b5b828204905092915050565b600061325882611fe8565b915061326383611fe8565b925082613273576132726131ed565b5b828206905092915050565b7f4e487b7100000000000000000000000000000000000000000000000000000000600052603260045260246000fdfea26469706673582212209ca5aeef91afaaeefa2abc4e2345651eb1fb9cee9f4783186cf87794aea592d664736f6c634300080e0033",
  "linkReferences": {},
  "deployedLinkReferences": {}
}